:020000040800F2
:1000000000500020291C00087919000881190008F7
:1000100089190008911900089919000800000000CA
:10002000000000000000000000000000A11900080E
:10003000AD19000800000000B9190008C519000832
:10004000711C0008711C0008711C0008711C00085C
:10005000711C0008711C0008711C0008711C00084C
:10006000711C0008711C0008711C0008711C00083C
:10007000711C0008711C0008711C0008711C00082C
:10008000711C0008711C0008711C0008711C00081C
:10009000711C0008711C0008711C0008711C00080C
:1000A000711C0008711C0008711C0008711C0008FC
:1000B000D1190008711C0008711C0008E51900081E
:1000C000F9190008711C0008711C0008711C000857
:1000D000711C0008711C0008711C0008711C0008CC
:1000E0000D1A0008711C0008711C000800000000B7
:1000F0000000000000000000000000000000000000
:0C01000000000000000000005FF808F1A3
:10010C0010B5054C237833B9044B13B10448AFF345
:10011C0000800123237010BD9C0000200000000013
:10012C00B460000808B5034B1BB103490348AFF397
:10013C00008008BD00000000A0000020B460000892
:10014C0080B586B002AF0346FB71FB7923F00F0339
:10015C00FB73FB791B01BB73FB7B43F00C03DBB222
:10016C003B72FB7B43F00803DBB27B72BB7B43F03F
:10017C000C03DBB2BB72BB7B43F00803DBB2FB723C
:10018C0007F108026423009304234221034802F080
:10019C00B3FA00BF1037BD4680BD00BF3801002048
:1001AC0080B586B002AF0346FB71FB7923F00F03D9
:1001BC00FB73FB791B01BB73FB7B43F00D03DBB2C1
:1001CC003B72FB7B43F00903DBB27B72BB7B43F0DE
:1001DC000D03DBB2BB72BB7B43F00903DBB2FB72DA
:1001EC0007F108026423009304234221034802F020
:1001FC0083FA00BF1037BD4680BD00BF3801002018
:10020C0080B500AF3320FFF79BFF3220FFF798FF3C
:10021C00322001F08BFD2820FFF792FF322001F0F5
:10022C0085FD0120FFF78CFF322001F07FFD0620B9
:10023C00FFF786FF322001F079FD0C20FFF780FFDD
:10024C00322001F073FD0220FFF77AFF322001F01B
:10025C006DFD8020FFF774FF00BF80BD80B582B0BC
:10026C0000AF786006E07B685A1C7A601B781846F1
:10027C00FFF796FF7B681B78002BF4D100BF00BF03
:10028C000837BD4680BD80B500AF0120FFF758FF91
:10029C0000BF80BD80B584B000AF786039607B68EA
:1002AC00002B04D13B68DBB2803BFB7306E07B6820
:1002BC00012B08D13B68DBB2403BFB73FB7B184640
:1002CC00FFF73EFF00E000BF1037BD4680BD0000C9
:1002DC0080B500AF6A4B1B78042B00F2898001A219
:1002EC0052F823F0050300084D03000871030008C1
:1002FC00A5030008C903000800F0BAFB0021002088
:10030C0001F0C2FB0121012001F0BEFB0021002005
:10031C0000F034FB0121012000F030FB4FF47A7225
:10032C004FF4FA61574801F08DF84FF4967240F68D
:10033C003401554801F086F8514B01221A7060E0E7
:10034C00012000F033FB0346002B53D10221012086
:10035C0001F09AFB0221012000F010FB484B022215
:10036C001A7047E0002000F021FB0346002B43D11C
:10037C000121002001F088FB0021012001F084FB09
:10038C000121002000F0FAFA0021012000F0F6FA19
:10039C003B4B03221A702FE0002000F007FB0346B2
:1003AC00002B2BD10221002001F06EFB022100203A
:1003BC0000F0E4FA324B04221A701FE0002000F027
:1003CC00F5FA0346002B1BD10021002001F05CFB49
:1003DC000121012001F058FB0021002000F0CEFA91
:1003EC000121012000F0CAFA254B01221A7007E006
:1003FC0000BF06E000BF04E000BF02E000BF00E069
:10040C0000BF002000F078F90346002B36D01F48BF
:10041C0001F0F0F81C4801F0EDF8FFF734FF002272
:10042C0064211B4801F00EF800224FF4FA611948C0
:10043C0001F008F84FF4967240F63401164801F0BA
:10044C0001F8002240F60201144800F0FBFF4FF4C3
:10045C007A7240F60201124800F0F4FF00210020ED
:10046C0001F012FB0121012001F00EFB3222C82108
:10047C000C4800F0E7FF024B05221A7000BF80BD4C
:10048C0035010020D909000871080008DD020008B8
:10049C00E10700089302000825080008390A000843
:1004AC001D0A0008510E000880B483B000AF03464B
:1004BC00FB710B46BB801346BB71FB790A2B03D82F
:1004CC000B4AFB79137002E0094B0A221A70094A95
:1004DC00BB791370BB88074A127893FBF2F39AB27C
:1004EC00054B1A8000BF0C37BD4680BC704700BF5F
:1004FC0000000020B80000203200002080B584B03D
:10050C0000AF0346FB710123FB73FB79002B02D078
:10051C00012B07D00EE01021094801F043FF0346E0
:10052C00FB7307E04FF48061054801F03BFF034685
:10053C00FB7300BFFB7B18461037BD4680BD00BF68
:10054C00000C014090B583B000AF0023FB7152E06A
:10055C00FA79FB792D49895C2D4AD154FA79FB79CA
:10056C002C49895C294AD154FC79FB791846FFF750
:10057C00C5FF03461A46274B1A55FB79254AD25C10
:10058C00FB792249CB5C9A420DD1FB791F4AD25C94
:10059C00FB791F49CB5C9A4205D1FA79FB791D494D
:1005AC00895C1D4AD154FB791B4AD35C002B16D1B4
:1005BC00FB791A4A32F81320194B1B889A4209D23C
:1005CC00FB79164A32F81320013291B2134A22F801
:1005DC0013100DE0FB79134A0121D15408E0FB798B
:1005EC000E4A002122F81310FB790E4A0021D15437
:1005FC00FB790133FB710C4B1B78FA799A42A7D328
:10060C0000BF00BF0C37BD4690BD00BF1C000020D2
:10061C00280000201000002004000020BC00002056
:10062C0032000020D00000200000002080B483B0F5
:10063C0000AF0346FB710A4B1B78FA799A4201D33F
:10064C00002307E0FB79074AD35C002B0CBF012386
:10065C000023DBB218460C37BD4680BC704700BF88
:10066C00000000200400002080B483B000AF0346DB
:10067C00FB710A4B1B78FA799A4201D3FF2307E0EE
:10068C00FB79074AD35C012B0CBF01230023DBB29F
:10069C0018460C37BD4680BC704700BF00000020D8
:1006AC00D000002090B583B000AF0346FB71FA79FF
:1006BC00FB790F49895C0F4AD154FC79FB791846B8
:1006CC00FFF7B4FF03461A46094B1A55FB79094A42
:1006DC00D35C002B06D1FB79054AD35C012B01D1ED
:1006EC00012300E0002318460C37BD4690BD00BF27
:1006FC00E8000020DC00002090B583B000AF03467A
:10070C00FB71FA79FB790F49895C0F4AD154FC795A
:10071C00FB791846FFF7A8FF03461A46094B1A55F2
:10072C00FB79094AD35C002B06D1FB79054AD35CD3
:10073C00012B01D1012300E0002318460C37BD46E4
:10074C0090BD00BF00010020F400002080B500AF78
:10075C000B490C4805F0A6F800210020FFF79AFD84
:10076C000848FFF77BFD0849084805F09BF8042171
:10077C000120FFF78FFD0548FFF770FD00BF80BD1E
:10078C00CC6000080C010020DC6000082001002077
:10079C0080B500AF0B490C4805F084F8002100200F
:1007AC00FFF778FD0848FFF759FD0849084805F0A0
:1007BC0079F802210120FFF76DFD0548FFF74EFD8A
:1007CC0000BF80BDCC6000080C010020E860000870
:1007DC002001002080B500AF0B490C4805F062F8F1
:1007EC0000210020FFF756FD0848FFF737FD0849A8
:1007FC00084805F057F802210120FFF74BFD05488A
:10080C00FFF72CFD00BF80BDCC6000080C01002060
:10081C00F46000082001002080B500AF002100200A
:10082C00FFF738FD0B490C4805F03CF80A48FFF778
:10083C0015FD00210120FFF72DFD00F00FF90346F7
:10084C001A460649064805F02DF80548FFF706FD3F
:10085C0000BF80BD006100080C0100200C61000885
:10086C002001002080B500AF00210020FFF712FD11
:10087C00002000F09BF803461A460C490C4805F082
:10088C0011F80B48FFF7EAFC00210120FFF702FDED
:10089C00012000F08BF803461A460649064805F07D
:1008AC0001F80548FFF7DAFC00BF80BD1C610008A9
:1008BC000C0100202C6100082001002080B500AF45
:1008CC0000210020FFF7E6FC0B490C4804F0EAFF7E
:1008DC000A48FFF7C3FC00210120FFF7DBFC00F006
:1008EC00BDF803461A460649064804F0DBFF0548E6
:1008FC00FFF7B4FC00BF80BD3C6100080C01002078
:10090C004C6100082001002080B500AF00210020C0
:10091C00FFF7C0FC0B490C4804F0C4FF0A48FFF772
:10092C009DFC00210120FFF7B5FC00F097F8034671
:10093C001A460649064804F0B5FF0548FFF78EFC39
:10094C0000BF80BD5C6100080C0100204C610008F8
:10095C002001002080B582B000AF0346FB71FB790B
:10096C00044A1178044AD15400F06CF800BF0837DF
:10097C00BD4680BD340100203400002080B483B01B
:10098C0000AF03460A46FB711346BB71BA79FB797B
:10099C000449895C044AD15400BF0C37BD4680BC65
:1009AC00704700BF340000203800002080B483B0B2
:1009BC0000AF0346FB71FB79034AD35C18460C3736
:1009CC00BD4680BC704700BF3800002080B400AF2B
:1009DC00074B1B78013BDAB2054B1A70044B5B7862
:1009EC00013BDAB2024B5A7000BFBD4680BC704767
:1009FC003800002080B400AF044B1B780133DAB20E
:100A0C00024B1A7000BFBD4680BC704734010020F9
:100A1C0080B400AF044B1B78013BDAB2024B1A7066
:100A2C0000BFBD4680BC70473401002080B400AFCD
:100A3C00034B14221A7000BFBD4680BC704700BF28
:100A4C003401002080B400AF034B00221A7000BFA9
:100A5C00BD4680BC704700BF3401002080B400AF9D
:100A6C00024B1B781846BD4680BC704734010020F1
:100A7C0080B400AF134B1B781A46124B5B781946A7
:100A8C00104B9B780B449A4218D00E4B5A780D4B56
:100A9C001B789A420AD30B4B1B780B4AA2FB0323FD
:100AAC009B08DBB29B00DAB2064B5A70054B1A78E6
:100ABC00044B5B78D31ADAB2024B9A7000BFBD4676
:100ACC0080BC704734000020CDCCCCCC80B400AFBF
:100ADC00054B1B78632B02D9034B01221A7000BF04
:100AEC00BD4680BC704700BF3401002080B500AF0C
:100AFC0001F0BAF800F028F800F0E2F800F066F81F
:100B0C0000F092F80D4804F06DFA0A2000F08AFC0F
:100B1C00FFF776FB0A224FF47A710220FFF7C4FC30
:100B2C000A220021064800F08DFCFA2264210548B7
:100B3C0000F088FC00F0F8FDFCE700BF8C01002001
:100B4C0051050008DD02000880B590B000AF07F138
:100B5C00180328220021184604F0C4FE3B1D002275
:100B6C001A605A609A60DA601A610223BB61012331
:100B7C00BB621023FB6202237B630023BB634FF435
:100B8C006013FB6307F11803184603F0DFFD0346FF
:100B9C00002B01D000F050F90F237B600223BB60C7
:100BAC000023FB604FF480633B6100237B613B1DA2
:100BBC000221184604F04CF80346002B01D000F03B
:100BCC003BF900BF4037BD4680BD000080B500AF8B
:100BDC00124B134A1A60114B124A5A600F4B0022E7
:100BEC009A600E4B5222DA600C4B4FF480421A6121
:100BFC000A4B00225A61094B00229A61074B0022D2
:100C0C00DA61064B00221A62044801F01DFC03460F
:100C1C00002B01D000F010F900BF80BD380100207E
:100C2C0000540040A086010080B586B000AF07F1EB
:100C3C00080300221A605A609A60DA603B46002270
:100C4C001A605A601D4B4FF080421A601B4B4FF6D6
:100C5C00FF125A60194B00229A60184B0A22DA6074
:100C6C00164B00221A61154B00229A61134804F0AE
:100C7C0069F90346002B01D000F0DEF84FF48053E5
:100C8C00BB6007F1080319460C4804F0EDFA034663
:100C9C00002B01D000F0D0F800233B6000237B60D8
:100CAC003B461946054804F0CFFC0346002B01D007
:100CBC0000F0C2F800BF1837BD4680BD8C01002083
:100CCC0080B588B000AF07F1100300221A605A609B
:100CDC009A60DA604E4B9B694D4A43F01003936166
:100CEC004B4B9B6903F01003FB60FB68484B9B6903
:100CFC00474A43F020039361454B9B6903F0200363
:100D0C00BB60BB68424B9B69414A43F0040393614F
:100D1C003F4B9B6903F004037B607B683C4B9B69F6
:100D2C003B4A43F008039361394B9B6903F008037A
:100D3C003B603B6800224FF44871364801F049FB98
:100D4C0000228021344801F044FB0022402133482A
:100D5C0001F03FFB4FF400533B61314B7B610023AF
:100D6C00BB6107F1100319462B4801F097F90C23CE
:100D7C003B6102237B610223FB6107F110031946DF
:100D8C00244801F08BF94FF448733B6101237B61DC
:100D9C000023BB610223FB6107F1100319461D48B8
:100DAC0001F07CF94FF482633B6100237B610123EA
:100DBC00BB6107F110031946184801F06FF9802345
:100DCC003B6101237B610023BB610223FB6107F1C3
:100DDC0010031946104801F061F940233B610123CF
:100DEC007B610023BB610223FB6107F110031946F1
:100DFC000A4801F053F900220021282001F091F853
:100E0C00282001F0AAF800BF2037BD4680BD00BFE6
:100E1C00001002400008014000100140000C01408D
:100E2C000000111080B582B000AF786000F05AFC61
:100E3C0000BF0837BD4680BD80B400AF72B600BF9E
:100E4C0000BFFDE780B500AFD24B1B78053B032BF1
:100E5C0000F2948101A252F823F000BF790E000831
:100E6C00B10F000803100008391100080020FFF72B
:100E7C0019FC0346002B01D0FFF7D8FDFFF7EEFD60
:100E8C000346002B33D1C44800F0B4FBC34800F038
:100E9C00B1FBC34800F0AEFBFFF7F5F9002232219D
:100EAC00C04800F0CFFA00210020FFF767FD0121B8
:100EBC000120FFF763FD00224FF4FA61BA4800F0FD
:100ECC00C1FA4FF4967240F63401B84800F0BAFA01
:100EDC004FF47A7240F63401B54800F0B3FA32227E
:100EEC00C821B44800F0AEFAAA4B01221A700020B7
:100EFC00FFF702FC0346002B2BD0A74800F07AFB2F
:100F0C00A64800F077FBA64800F074FBFFF7BBF98E
:100F1C0000223221A84800F095FA00224FF4FA6121
:100F2C00A14800F08FFA4FF4967240F63401A348B2
:100F3C0000F088FA3222C821A14800F083FAFA2284
:100F4C00C821A04800F07EFAFFF77CFD914B0922E6
:100F5C001A700120FFF7A6FB0346002B00F010814E
:100F6C008E4800F047FB0221012000F08DFD02218C
:100F7C000020FFF703FD02210120FFF7FFFCFFF724
:100F8C0082F94FF496726421884800F05BFA4FF4B2
:100F9C007A724FF47A71864800F054FA7D4B06222F
:100FAC001A70EDE00020FFF701FD0346002B40F026
:100FBC00E9807F4800F01EFB7C4800F01BFBFFF72C
:100FCC0062F94FF496726421744800F03BFA4FF4C6
:100FDC007A726421724800F035FAFFF727FD01217F
:100FEC00002000F051FD0021012000F04DFD694B67
:100FFC0007221A70C6E00020FFF754FB0346002BB3
:10100C0001D0FFF713FDFFF729FD0346002B33D169
:10101C00614800F0EFFA614800F0ECFA604800F02B
:10102C00E9FAFFF730F9002232215E4800F00AFAA3
:10103C0001210020FFF7A2FC00210120FFF79EFCFC
:10104C0000224FF4FA61584800F0FCF94FF4967204
:10105C0040F63401554800F0F5F94FF47A7240F639
:10106C003401534800F0EEF93222C821514800F007
:10107C00E9F9484B03221A700020FFF73DFB0346A9
:10108C00002B2BD0444800F0B5FA444800F0B2FADB
:10109C00434800F0AFFAFFF7F6F800223221464839
:1010AC0000F0D0F900224FF4FA613F4800F0CAF981
:1010BC004FF4967240F63401404800F0C3F93222E6
:1010CC00C8213F4800F0BEF9FA22C8213D4800F083
:1010DC00B9F9FFF7B7FC2F4B09221A700120FFF763
:1010EC00E1FA0346002B4FD02C4800F083FA022182
:1010FC00012000F0C9FC02210020FFF73FFC022177
:10110C000120FFF73BFCFFF7BEF84FF49672642109
:10111C00264800F097F94FF47A724FF47A7124480C
:10112C0000F090F91B4B08221A702DE00020FFF7FD
:10113C003DFC0346002B29D11D4800F05BFA1B48EF
:10114C0000F058FAFFF79FF84FF496726421134899
:10115C0000F078F94FF47A726421114800F072F9BA
:10116C00FFF764FC0021002000F08EFC012101201F
:10117C0000F08AFC074B05221A7007E000BF06E05E
:10118C0000BF04E000BF02E000BF00E000BF00BFF2
:10119C0080BD00BF35010020510E00082508000855
:1011AC001D0A00085907000893020008710800087E
:1011BC00D9090008DD0200089D070008C9080008CD
:1011CC00D5110008851B000880B500AF8B4B1B7830
:1011DC00093B072B00F2FE8001A252F823F000BF5E
:1011EC000D1200085B1200089B120008D5120008B3
:1011FC00F1120008511300088F130008C7130008E0
:10120C000120FFF713FA0346002B04D0FFF7F2FB83
:10121C007A4B0B221A700020FFF76EFA0346002B54
:10122C0000F0DA80764800F0E5F94FF4967264210C
:10123C00744800F007F9744800F0DCF9FA226421D4
:10124C00724800F0FFF86D4B0D221A70C4E0FFF7E6
:10125C003DFC0020FFF7EAF90346002B0AD0FFF70C
:10126C00FDFB0346002B02D00020FFF773FB634B02
:10127C0009221A700120FFF7D9F90346002B00F060
:10128C00AD80FFF7B7FB5D4B0B221A70A6E0012077
:10129C00FFF7CCF90346002B02D1584B0A221A70E7
:1012AC000120FFF7E1F90346002B00F09980FFF7CE
:1012BC00A1FB4FF4FA724FF4FA71554800F0C2F8E2
:1012CC004E4B0C221A708BE00120FFF7AFF903464E
:1012DC00002B40F087804E4800F08CF9474B0A22D7
:1012EC001A707FE00120FFF7A1F90346002B04D010
:1012FC00FFF780FB414B0F221A700020FFF7FCF91F
:10130C000346002B70D03F4800F074F93F4800F0C2
:10131C0071F9404800F06EF9FEF7B5FF002232215A
:10132C003D4800F08FF800224FF4FA613B4800F082
:10133C0089F8322264213A4800F084F82F4B0022BD
:10134C001A7051E0FFF7C2FB0020FFF76FF903465C
:10135C00002B0AD0FFF782FB0346002B02D00120A2
:10136C00FFF7F8FA254B0D221A700120FFF75EF9F2
:10137C000346002B3AD0FFF73DFB204B0F221A708F
:10138C0034E00120FFF752F90346002B02D11B4B2E
:10139C000E221A700120FFF767F90346002B27D0A5
:1013AC00FFF728FB4FF4FA724FF4FA71184800F06B
:1013BC0049F8124B10221A701AE00120FFF736F987
:1013CC000346002B16D1124800F014F90B4B0E22D9
:1013DC001A700FE000BF0EE000BF0CE000BF0AE087
:1013EC0000BF08E000BF06E000BF04E000BF02E061
:1013FC0000BF00E000BF00BF80BD00BF3501002072
:10140C00C908000815090008851B0008BD1B000849
:10141C00010A0008D51100085907000893020008BA
:10142C00DD02000880B483B000AF0346FB71044AB0
:10143C00FB79137000BF0C37BD4680BC704700BFF2
:10144C003A00002080B588B000AFF860B9607A60CF
:10145C00654B1B781A46BB68B3FBF2F3BB60624B5F
:10146C001B781A467B68B3FBF2F37B605F4B1B78EF
:10147C00002B25D1182004F057F903461A465C4B73
:10148C001A605B4B1B68FA681A60594B1B68BA6888
:10149C005A60574B1B687A689A60554B1B68002240
:1014AC001A73534B1B6800221A61514B1B680022A4
:1014BC005A614E4B1B780133DAB24C4B1A7090E0E8
:1014CC00182004F031F903467B617B69FA681A60D5
:1014DC007B69BA685A607B697A689A607B6900227A
:1014EC001A737B6900221A617B6900225A61F868C1
:1014FC0000F080F87B695A683D4B1B685B689A4228
:10150C0008D37B695B68002B10D1394B1B685B6877
:10151C00002B0BD0364B1A687B691A61344B1B6855
:10152C007A695A61324A7B6913604BE0304B1B6815
:10153C00FB61FB695B68BB6108E0FB691B695B686D
:10154C00BA691344BB61FB691B69FB617B695B680E
:10155C00BA699A4203D8FB691B69002BEDD1FB6970
:10156C001B69002B17D17B695B68BA699A4212D848
:10157C007B695A68BB69D21A7B695A60FB697A69C4
:10158C001A617B69FA695A61184B1B780133DAB21C
:10159C00164B1A7025E07B695A68FB695968BB6960
:1015AC00CB1A1A447B695A60FB695B697A691A61C8
:1015BC00FB695A697B695A617B69FA691A61FB6933
:1015CC007A695A617B691B6959687B695A687B69BE
:1015DC001B698A1A5A60054B1B780133DAB2034B2C
:1015EC001A702037BD4680BD3A000020D80100207B
:1015FC00D401002080B485B000AF7860374B1B78E5
:10160C00012B64D9364B1B68FB60354B1B681B6880
:10161C007A689A4229D1314B1B78012B03D1304B7C
:10162C0000221A604BE02E4B1B681B692C4A13607E
:10163C002B4B1B6800225A61FB6800221A61FB6865
:10164C005B68002B3BD0264B1B685968FB685A68BB
:10165C00234B1B680A445A6031E0FB681B69FB6032
:10166C00FB68002B01D1002332E0FB681B687A6811
:10167C009A42F2D1FB681B69002B07D1FB685B69AE
:10168C0000221A61FB6800225A6118E0FB685B6952
:10169C00FA6812691A61FB681B69FA6852695A6127
:1016AC00FB681B695968FB685A68FB681B690A442C
:1016BC005A60FB6800221A61FB6800225A61074BD2
:1016CC001B78013BDAB2054B1A70FB6800E0002373
:1016DC0018461437BD4680BC704700BFD8010020A7
:1016EC00D401002080B400AF0E4B1B68002B14D02B
:1016FC000C4B1B685B68002B04D00A4B1B685A68A8
:10170C00013A5A60074B1B685B68002B05D1054BEF
:10171C001B681A7B0132D2B21A7300BFBD4680BC63
:10172C00704700BFD401002080B582B000AF324BAF
:10173C001B68002B5CD0304B1B681B7B002B57D0DD
:10174C002D4B1B681B6898472B4B1B681A7B013A67
:10175C00D2B21A73284B1B681B681846FFF74AFF56
:10176C0078607B689B68002B10D07B6818687B685E
:10177C009B68224A127802FB03F17B689B681F4A24
:10178C00127802FB03F31A46FFF75CFE786803F04D
:10179C00D3FF26E0184B1B681B689847164B1B6839
:1017AC001B681846FFF726FF38603B689B68002BC8
:1017BC0010D03B6818683B689B68104A127802FB93
:1017CC0003F13B689B680D4A127802FB03F31A463F
:1017DC00FFF738FE386803F0AFFF074B1B68002B90
:1017EC0005D0054B1B685B68002BD3D000E000BF15
:1017FC000837BD4680BD00BFD40100203A00002050
:10180C0080B485B000AF154B9B69144A43F00103BB
:10181C009361124B9B6903F00103BB60BB680F4BD8
:10182C00DB690E4A43F08053D3610C4BDB6903F048
:10183C0080537B607B680A4B5B68FB60FB6823F022
:10184C00E063FB60FB6843F00073FB60044AFB68D9
:10185C00536000BF1437BD4680BC70470010024077
:10186C000000014080B58AB000AF786007F1140326
:10187C0000221A605A609A60DA607B681B68254AFD
:10188C00934242D1244B9B69234A43F00803936152
:10189C00214B9B6903F008033B613B694FF4407398
:1018AC007B611223BB6103233B6207F114031946CE
:1018BC001A4800F0F3FB1A4B5B687B627B6A43F0BF
:1018CC00E0637B627B6A43F002037B62144A7B6AAF
:1018DC005360114BDB69104A43F40013D3610E4B78
:1018EC00DB6903F40013FB60FB68002200211F205E
:1018FC0000F017FB1F2000F030FB002200212020FD
:10190C0000F00FFB202000F028FB00BF2837BD465D
:10191C0080BD00BF0054004000100240000C01408C
:10192C000000014080B584B000AF78607B681B6814
:10193C00B3F1804F13D10C4BDB690B4A43F001031D
:10194C00D361094BDB6903F00103FB60FB680022E8
:10195C0000211C2000F0E5FA1C2000F0FEFA00BF6C
:10196C001037BD4680BD00BF0010024080B400AFF0
:10197C0000BFFDE780B400AF00BFFDE780B400AF4F
:10198C0000BFFDE780B400AF00BFFDE780B400AF3F
:10199C0000BFFDE780B400AF00BFBD4680BC704700
:1019AC0080B400AF00BFBD4680BC704780B400AFB0
:1019BC0000BFBD4680BC704780B500AF00F09AF9FF
:1019CC0000BF80BD80B500AF024803F05DFB00BFD7
:1019DC0080BD00BF8C01002080B500AF024800F034
:1019EC0089FF00BF80BD00BF3801002080B500AF6B
:1019FC00024801F0D2F800BF80BD00BF38010020C2
:101A0C0080B500AF4FF4005000F0FCFC00BF80BD6F
:101A1C0080B586B000AF7860144A154BD31A7B6141
:101A2C007B693B61134B1B68002B02D1114B124A93
:101A3C001A60104B1A687B6813443A699A4207D2B1
:101A4C0003F068FF03460C221A604FF0FF3309E0E5
:101A5C00084B1B68FB60074B1A687B681344054AEC
:101A6C001360FB6818461837BD4680BD0050002037
:101A7C0000040000DC0100203003002080B400AF23
:101A8C0000BFBD4680BC704780B582B000AF034636
:101A9C000A46FB711346BB71FB79002B02D0012B5C
:101AAC002DD05FE0BB79022B1CD0022B25DC002B48
:101ABC0002D0012B0BD020E0012240212B4800F05A
:101ACC0088FC012280212A4800F083FC16E00022C9
:101ADC004021264800F07DFC01228021244800F0A2
:101AEC0078FC0BE001224021204800F072FC00221F
:101AFC0080211F4800F06DFC00E000BF32E0BB7994
:101B0C00022B20D0022B2BDC002B02D0012B0DD072
:101B1C0026E001224FF40071164800F05AFC012215
:101B2C004FF48071134800F054FC1AE000224FF47B
:101B3C000071104800F04DFC01224FF480710D48EB
:101B4C0000F047FC0DE001224FF40071094800F051
:101B5C0040FC00224FF48071064800F03AFC00E093
:101B6C0000BF00BF00BF0837BD4680BD000C014060
:101B7C00001001400008014080B500AF0B4B1B78F2
:101B8C00012B0BD100210020FFF77EFF002101204B
:101B9C00FFF77AFF054B00221A7004E000F024F8DE
:101BAC00024B01221A7000BF80BD00BF4000002014
:101BBC0080B500AF0B4B1B78012B0BD10121002002
:101BCC00FFF762FF01210120FFF75EFF054B0022AA
:101BDC001A7004E000F008F8024B01221A7000BFE2
:101BEC0080BD00BF4000002080B500AF00224FF444
:101BFC004071074800F0EDFB00224021054800F041
:101C0C00E8FB00228021044800F0E3FB00BF80BD0C
:101C1C0000080140000C014000100140FFF72EFFAE
:101C2C000B480C490C4A002302E0D458C45004332E
:101C3C00C4188C42F9D3094A094C002301E0136003
:101C4C000432A242FBD303F06BFEFEF74FFF70474A
:101C5C00000000209C000020D46100089C000020A3
:101C6C002C030020FEE7000080B500AF084B1B687A
:101C7C00074A43F010031360032000F047F90020DB
:101C8C0000F008F8FFF7BCFD0023184680BD00BF2C
:101C9C000020024080B582B000AF7860124B1A6809
:101CAC00124B1B7819464FF47A73B3FBF1F3B2FB6A
:101CBC00F3F3184600F05FF90346002B01D0012323
:101CCC000EE07B680F2B0AD8002279684FF0FF30AA
:101CDC0000F027F9064A7B681360002300E001231B
:101CEC0018460837BD4680BD3C0000204800002047
:101CFC004400002080B400AF054B1B781A46054BFE
:101D0C001B681344034A136000BFBD4680BC704778
:101D1C0048000020E001002080B400AF024B1B689B
:101D2C001846BD4680BC7047E001002080B584B0E9
:101D3C0000AF7860FFF7F0FFB8607B68FB60FB6872
:101D4C00B3F1FF3F05D00A4B1B781A46FB681344CE
:101D5C00FB6000BFFFF7E0FF0246BB68D31AFA68CE
:101D6C009A42F7D800BF00BF1037BD4680BD00BFF8
:101D7C004800002080B485B000AF78607B6803F029
:101D8C000703FB600C4BDB68BB60BA684FF6FF03C4
:101D9C001340BB60FB681A02BB68134343F0BF637C
:101DAC0043F40033BB60044ABB68D36000BF1437F4
:101DBC00BD4680BC704700BF00ED00E080B400AFB2
:101DCC00044BDB681B0A03F007031846BD4680BCB6
:101DDC00704700BF00ED00E080B483B000AF034655
:101DEC00FB7197F90730002B0BDBFB7903F01F021B
:101DFC00064997F907305B09012000FA02F241F815
:101E0C00232000BF0C37BD4680BC704700E100E0CA
:101E1C0080B483B000AF03463960FB7197F907308B
:101E2C00002B0ADB3B68DAB20C4997F90730120138
:101E3C00D2B20B4483F800230AE03B68DAB20849BB
:101E4C00FB7903F00F03043B1201D2B20B441A7658
:101E5C0000BF0C37BD4680BC704700BF00E100E0FE
:101E6C0000ED00E080B489B000AFF860B9607A6032
:101E7C00FB6803F00703FB61FB69C3F10703042B49
:101E8C0028BF0423BB61FB690433062B02D9FB6911
:101E9C00033B00E000237B614FF0FF32BB6902FA89
:101EAC0003F3DA43BB681A407B699A404FF0FF3169
:101EBC007B6901FA03F3D9437B680B401343184643
:101ECC002437BD4680BC704780B582B000AF7860C7
:101EDC007B68013BB3F1807F01D301230FE00A4AF9
:101EEC007B68013B53600F214FF0FF30FFF790FFF1
:101EFC00054B00229A60044B07221A6000231846F7
:101F0C000837BD4680BD00BF10E000E080B582B050
:101F1C0000AF78607868FFF72DFF00BF0837BD462B
:101F2C0080BD80B586B000AF0346B9607A60FB73A4
:101F3C0000237B61FFF742FF78617A68B9687869A2
:101F4C00FFF790FF024697F90F3011461846FFF73E
:101F5C005FFF00BF1837BD4680BD80B582B000AFB3
:101F6C000346FB7197F907301846FFF735FF00BFA2
:101F7C000837BD4680BD80B582B000AF7860786808
:101F8C00FFF7A2FF034618460837BD4680BD000088
:101F9C0080B584B000AF78600023FB737B6893F846
:101FAC002130DBB2022B05D07B6804229A6301231B
:101FBC00FB7351E07B681B681A687B681B6822F016
:101FCC000E021A607B681B681A687B681B6822F01B
:101FDC0001021A607B681B68224A934229D07B68F5
:101FEC001B68214A934222D07B681B681F4A93428C
:101FFC001AD07B681B681E4A934212D07B681B6800
:10200C001C4A93420AD07B681B681B4A934202D13C
:10201C004FF480130EE04FF080730BE04FF48033DD
:10202C0008E04FF4805305E04FF4807302E0102376
:10203C0000E00123114A53607B68012283F82120C0
:10204C007B68002283F820207B685B6B002B03D01D
:10205C007B685B6B78689847FB7B18461037BD46EE
:10206C0080BD00BF080002401C000240300002404E
:10207C0044000240580002406C0002400000024044
:10208C0080B483B000AF78607B6893F82130DBB20A
:10209C0018460C37BD4680BC7047000080B48BB02E
:1020AC0000AF7860396000237B6200233B6269E1FA
:1020BC0001227B6A02FA03F3FB613B681B68FA6935
:1020CC001340BB61BA69FB699A4240F058813B6886
:1020DC005B689A4A93425ED0984A934275D8984A64
:1020EC00934258D0964A93426FD8964A934252D014
:1020FC00944A934269D8944A93424CD0924A934260
:10210C0063D8924A934246D0904A93425DD8122BA0
:10211C002AD8122B59D801A252F823F0A321000877
:10212C007D2100088F210008D1210008D72100084B
:10213C00D7210008D7210008D7210008D721000893
:10214C00D7210008D7210008D7210008D721000883
:10215C00D7210008D7210008D7210008D721000873
:10216C008521000899210008794A934213D02CE06C
:10217C003B68DB683B6229E03B68DB6804333B620D
:10218C0024E03B68DB6808333B621FE03B68DB689C
:10219C000C333B621AE03B689B68002B02D1042392
:1021AC003B6213E03B689B68012B05D108233B6223
:1021BC007B68FA691A6109E008233B627B68FA695B
:1021CC005A6103E000233B6200E000BFBB69FF2BB8
:1021DC0001D87B6801E07B6804337B61BB69FF2B12
:1021EC0002D87B6A9B0002E07B6A083B9B003B6148
:1021FC007B691A680F213B6901FA03F3DB431A4030
:10220C00396A3B6901FA03F31A437B691A603B682C
:10221C005B6803F08053002B00F0B1804D4B9B6941
:10222C004C4A43F0010393614A4B9B6903F0010351
:10223C00BB60BB68484A7B6A9B08023352F8233068
:10224C00FB607B6A03F003039B000F2202FA03F38B
:10225C00DB43FA681340FB607B68404A934213D01F
:10226C007B683F4A93420DD07B683E4A934207D02D
:10227C007B683D4A934201D1032306E0042304E02A
:10228C00022302E0012300E000237A6A02F0030239
:10229C0092009340FA681343FB602F497B6A9B08BA
:1022AC000233FA6841F823203B685B6803F480131F
:1022BC00002B06D02D4B9A682C49BB6913438B60BD
:1022CC0006E02A4B9A68BB69DB43284913408B60B4
:1022DC003B685B6803F40013002B06D0234BDA68D1
:1022EC002249BB691343CB6006E0204BDA68BB691B
:1022FC00DB431E491340CB603B685B6803F400333F
:10230C00002B06D0194B5A681849BB6913434B6014
:10231C0006E0164B5A68BB69DB43144913404B600B
:10232C003B685B6803F48033002B21D00F4B1A6899
:10233C000E49BB6913430B6021E000BF0000321053
:10234C0000003110000022100000211000001210BB
:10235C000000111000100240000001400008014074
:10236C00000C014000100140001401400004014029
:10237C000B4B1A68BB69DB43094913400B607B6A42
:10238C0001337B623B681A687B6A22FA03F3002BE9
:10239C007FF48EAE00BF00BF2C37BD4680BC7047AB
:1023AC000004014080B485B000AF78600B467B80A0
:1023BC007B689A687B881340002B02D00123FB7347
:1023CC0001E00023FB73FB7B18461437BD4680BC31
:1023DC00704780B483B000AF78600B467B801346A7
:1023EC007B707B78002B03D07A887B681A6103E0C2
:1023FC007B881A047B681A6100BF0C37BD4680BC11
:10240C007047000080B582B000AF0346FB80084BDC
:10241C005A69FB881340002B06D0054AFB88536190
:10242C00FB88184600F006F800BF0837BD4680BD93
:10243C000004014080B483B000AF0346FB8000BFB2
:10244C000C37BD4680BC704780B584B000AF786057
:10245C007B68002B01D101232BE17B6893F83D3085
:10246C00DBB2002B06D17B68002283F83C20786815
:10247C00FFF7F8F97B68242283F83D207B681B6802
:10248C001A687B681B6822F001021A607B681B6863
:10249C001A687B681B6842F400421A607B681B68F0
:1024AC001A687B681B6822F400421A6002F018FD5F
:1024BC00F8607B685B68814A934207D8FB68804A66
:1024CC00934294BF01230023DBB206E0FB687D4AF4
:1024DC00934294BF01230023DBB2002B01D00123D4
:1024EC00E7E0FB68784AA2FB03239B0CBB607B688C
:1024FC001B685B6823F03F017B681B68BA680A4362
:10250C005A607B681B681B6A23F03F017B685B6821
:10251C006A4A934202D8BB68013309E0BB684FF4A6
:10252C00967202FB03F3694AA2FB03239B09013356
:10253C007A6812680B4313627B681B68DB6923F4AF
:10254C004F4222F0FF027B685B685C498B4219D8D2
:10255C00FB68591E7B685B685B00B1FBF3F3591C8D
:10256C0040F6FC730B40002B0AD0FB68591E7B68AD
:10257C005B685B00B1FBF3F30133C3F30B0351E076
:10258C0004234FE07B689B68002B11D1FB68581E1D
:10259C007B6859680B465B000B44B0FBF3F30133CB
:1025AC00C3F30B03002B0CBF01230023DBB212E09F
:1025BC00FB68581E7B6859680B469B000B449900BE
:1025CC000B44B0FBF3F30133C3F30B03002B0CBF31
:1025DC0001230023DBB2002B01D0012322E07B6816
:1025EC009B68002B0ED1FB68581E7B6859680B4604
:1025FC005B000B44B0FBF3F30133C3F30B0343F465
:10260C0000430FE0FB68581E7B6859680B469B0023
:10261C000B4499000B44B0FBF3F30133C3F30B03EE
:10262C0043F44043796809681343CB617B681B68AA
:10263C001B6823F0C0017B68DA697B681B6A1A434C
:10264C007B681B680A431A607B681B689B6823F4D1
:10265C00034323F0FF037A6811697A68D268114347
:10266C007A6812680B4393607B681B68DB6823F005
:10267C00FF017B685A697B689B691A437B681B68FE
:10268C000A43DA607B681B681A687B681B6842F037
:10269C0001021A607B6800221A647B68202283F88E
:1026AC003D207B6800221A637B68002283F83E2061
:1026BC00002318461037BD4680BD00BFA086010020
:1026CC007F841E00FF083D0083DE1B43D34D621048
:1026DC0080B483B000AF78607B681B685B6903F0E3
:1026EC008003802B03D17B681B6800221A6100BF1A
:1026FC000C37BD4680BC704780B588B002AFF8601F
:10270C007A601A460B467B8113463B81FFF704FB2C
:10271C007861FB6893F83D30DBB2202B40F0E08011
:10272C007B690093192301227049F86801F0EAFDD6
:10273C000346002B01D00223D3E0FB6893F83C3016
:10274C00012B01D10223CCE0FB68012283F83C2051
:10275C00FB681B681B6803F00103012B07D0FB68A7
:10276C001B681A68FB681B6842F001021A60FB6860
:10277C001B681A68FB681B6822F400621A60FB680D
:10278C00212283F83D20FB68102283F83E20FB6851
:10279C0000221A64FB687A685A62FB683A895A8587
:1027AC00FB685B8D9AB2FB681A85FB68504ADA624B
:1027BC0079897B693A6AF86801F07AFC0346002B48
:1027CC0001D001238DE000233B61FB681B685B6932
:1027DC003B61FB681B689B693B613B6966E07A69FE
:1027EC00396AF86801F0A8FE0346002B0DD0FB688F
:1027FC001B6C042B07D1FB681B681A68FB681B68F1
:10280C0042F400721A6001236BE0FB685B6A1A7871
:10281C00FB681B681A61FB685B6A5A1CFB685A628E
:10282C00FB685B8D9BB2013B9AB2FB685A85FB68D7
:10283C001B8D013B9AB2FB681A85FB681B685B69B0
:10284C0003F00403042B1BD1FB681B8D002B17D04A
:10285C00FB685B6A1A78FB681B681A61FB685B6A29
:10286C005A1CFB685A62FB685B8D9BB2013B9AB2A7
:10287C00FB685A85FB681B8D013B9AB2FB681A8575
:10288C007A69396AF86801F09FFE0346002B0DD077
:10289C00FB681B6C042B07D1FB681B681A68FB6870
:1028AC001B6842F400721A6001231AE0FB681B8D4E
:1028BC00002B94D1FB681B681A68FB681B6842F4F8
:1028CC0000721A60FB68202283F83D20FB6800220E
:1028DC0083F83E20FB68002283F83C20002300E0B4
:1028EC00022318461837BD4680BD00BF02001000F9
:1028FC000000FFFF80B588B000AF78600023BB619B
:10290C007B681B685B687B617B68DB6A3B617B680F
:10291C0093F83E30FB737B6893F83D30BB73FB7BC5
:10292C00102B03D0FB7B402B40F0B1807B681B68E5
:10293C009B69BB617B681B685B69FB61FB6903F08E
:10294C000103002B0DD13B69B3F52A0F03D03B6972
:10295C00B3F12A4F01D1012300E00023012B00F039
:10296C001481FB6903F00103002B0BD07B6903F48A
:10297C000073002B06D0786801F0CEFE786800F06A
:10298C0074FD83E0FB6903F00803002B08D07B691E
:10299C0003F40073002B03D0786800F0EBFD75E0B6
:1029AC00FB6903F00203002B08D07B6903F400736E
:1029BC00002B03D0786800F006FE67E0BB6903F0DB
:1029CC000403002B36D07B681B685B6803F4006340
:1029DC00B3F5006F00F0DB80FB6903F08003002B84
:1029EC000DD07B6903F48063002B08D0FB6903F0E6
:1029FC000403002B03D1786800F0D4F946E0FB699E
:102A0C0003F00403002B00F0C2807B6903F4007315
:102A1C00002B00F0BC80BB7B212B03D1786800F02D
:102A2C005DFAB4E0FB7B402B40F0B180786800F09D
:102A3C00CBFAACE07B681B685B6803F40063B3F50E
:102A4C00006F00F0A480FB6903F04003002B0DD055
:102A5C007B6903F48063002B08D0FB6903F004034B
:102A6C00002B03D1786800F047FB0FE0FB6903F003
:102A7C000403002B00F08B807B6903F40073002BA4
:102A8C0000F08580786800F0FFFB80E07FE07B68D9
:102A9C001B6C002B04D07B681B685B69FB6107E037
:102AAC007B681B689B69BB617B681B685B69FB610E
:102ABC00FB6903F00203002B11D07B6903F4007354
:102ACC00002B0CD07B681B6C002B03D07B681B6825
:102ADC009B69BB61B969786800F0CCFF5AE0FB696F
:102AEC0003F01003002B08D07B6903F40073002B58
:102AFC0003D0786801F006F84CE0BB7B212B02D0A8
:102B0C00BB7B292B20D1FB6903F08003002B0DD05C
:102B1C007B6903F48063002B08D0FB6903F004038A
:102B2C00002B03D1786800F0E9FE32E0FB6903F07A
:102B3C000403002B2DD07B6903F40073002B28D0E9
:102B4C00786800F018FF24E0FB6903F04003002BC9
:102B5C000DD07B6903F48063002B08D0FB6903F074
:102B6C000403002B03D1786800F025FF12E0FB6909
:102B7C0003F00403002B0DD07B6903F40073002BCE
:102B8C0008D0786800F055FF04E000BF02E000BFF9
:102B9C0000E000BF2037BD4680BD80B58AB000AFD5
:102BAC0078607B681B685B693B627B681B685B6851
:102BBC00FB6100237B627B6893F83E30FB763B6ABB
:102BCC0003F48073002B15D0FB6903F48073002B86
:102BDC0010D07B6A43F001037B627B681B686FF447
:102BEC0080725A617B681B681A687B681B6842F4A8
:102BFC0000421A603B6A03F40073002B0DD0FB6992
:102C0C0003F48073002B08D07B6A43F002037B62D1
:102C1C007B681B686FF400725A613B6A03F4806333
:102C2C00002B3ED0FB6903F48073002B39D0FB7E64
:102C3C00BB767B685B8D9BB27B617B6893F83D3088
:102C4C00FB747B681B6BFB60BB7E202B12D17B69FA
:102C5C00002B0FD1FB7C212B08D0FB7C292B05D022
:102C6C00FB7C282B06D1FB68212B03D1786801F063
:102C7C0079F816E07B681B686FF480625A617B6A96
:102C8C0043F004037B62FB7E102B02D0FB7E402BB7
:102C9C0007D17B681B681A687B681B6842F400725A
:102CAC001A603B6A03F40063002B0DD0FB6903F43C
:102CBC008073002B08D07B6A43F008037B627B682F
:102CCC001B686FF400625A617B6A002B08D07B682A
:102CDC001A6C7B6A1A437B681A64786801F0B6F840
:102CEC0000BF2837BD4680BD80B483B000AF78608C
:102CFC0000BF0C37BD4680BC704780B483B000AFBA
:102D0C00786000BF0C37BD4680BC704780B483B080
:102D1C0000AF786000BF0C37BD4680BC704780B4F4
:102D2C0083B000AF786000BF0C37BD4680BC7047E5
:102D3C0080B483B000AF78600B46FB7013463B80C9
:102D4C0000BF0C37BD4680BC704780B483B000AF69
:102D5C00786000BF0C37BD4680BC704780B483B030
:102D6C0000AF786000BF0C37BD4680BC704780B4A4
:102D7C0083B000AF786000BF0C37BD4680BC704795
:102D8C0080B483B000AF786000BF0C37BD4680BC08
:102D9C00704780B483B000AF786000BF0C37BD467D
:102DAC0080BC704780B584B000AF78607B6893F8C6
:102DBC003D30FB737B6893F83E30BB737B68DB6AFA
:102DCC00BB607B681B8D002B50D1FB7B212B4DD125
:102DDC00BB68082B1DD0BB68202B1AD0BB6813F521
:102DEC00803F16D07B681B685A687B681B6822F48E
:102DFC00E0625A607B6811221A637B68002283F8B8
:102E0C003E207B68202283F83D207868FFF76CFF1A
:102E1C0060E07B681B685A687B681B6822F4E06280
:102E2C005A607B681B681A687B681B6842F40072E6
:102E3C001A607B6800221A637B68202283F83D208D
:102E4C007B6893F83E30DBB2402B07D17B680022C5
:102E5C0083F83E207868FFF781FF3BE07B68002217
:102E6C0083F83E207868FFF73FFF33E0FB7B212B94
:102E7C0005D0BB7B402B2DD1FB7B222B2AD17B6831
:102E8C005B8D9BB2002B08D17B681B685A687B68F2
:102E9C001B6822F480625A601CE07B6893F83E3019
:102EAC00DBB2402B03D1786800F08EF812E07B681F
:102EBC005B6A1A787B681B681A617B685B6A5A1CB0
:102ECC007B685A627B685B8D9BB2013B9AB27B68D4
:102EDC005A85FFE700BF1037BD4680BD80B584B072
:102EEC0000AF78607B68DB6AFB607B6893F83D30F1
:102EFC00DBB2212B64D17B685B8D9BB2002B12D093
:102F0C007B685B6A1A787B681B681A617B685B6AF2
:102F1C005A1C7B685A627B685B8D9BB2013B9AB2F0
:102F2C007B685A854CE0FB68082B1DD0FB68202B76
:102F3C001AD0FB6813F5803F16D07B681B685A6863
:102F4C007B681B6822F4E0625A607B6811221A636A
:102F5C007B68002283F83E207B68202283F83D208A
:102F6C007868FFF7C1FE2BE07B681B685A687B68AA
:102F7C001B6822F4E0625A607B681B681A687B68E5
:102F8C001B6842F400721A607B6800221A637B682B
:102F9C00202283F83D207B6893F83E30DBB2402B37
:102FAC0007D17B68002283F83E207868FFF7D6FEB5
:102FBC0006E07B68002283F83E207868FFF794FED9
:102FCC0000BF1037BD4680BD80B584B000AF7860BF
:102FDC007B6893F83D30FB737B681B6D002B1DD118
:102FEC007B68DB6C012B0BD17B689B6CDAB27B684A
:102FFC001B681A617B681B6D9A1C7B681A6577E0ED
:10300C007B689B6C9BB21B12DAB27B681B681A61E3
:10301C007B681B6D5A1C7B681A6569E07B681B6DAD
:10302C00012B0BD17B689B6CDAB27B681B681A6135
:10303C007B681B6D5A1C7B681A6559E07B681B6D9D
:10304C00022B52D1FB7B222B0DD17B681B681A689B
:10305C007B681B6842F480721A607B681B6D5A1C7B
:10306C007B681A6544E07B685B8D9BB2002B15D0A6
:10307C00FB7B212B12D17B685B6A1A787B681B68FF
:10308C001A617B685B6A5A1C7B685A627B685B8D31
:10309C009BB2013B9AB27B685A8529E07B685B8DB9
:1030AC009BB2002B24D1FB7B212B21D17B681B688D
:1030BC005A687B681B6822F4E0625A607B681B6864
:1030CC001A687B681B6842F400721A607B680022E5
:1030DC001A637B68202283F83D207B68002283F8EA
:1030EC003E207868FFF73AFE02E07868FFF7F0FAC6
:1030FC0000BF1037BD4680BD80B584B000AF78608E
:10310C007B6893F83D30DBB2222B40F0B9807B68B2
:10311C00DB6AFB607B685B8D9BB2BB60BB68032B7F
:10312C0021D97B681B681A697B685B6AD2B21A70FA
:10313C007B685B6A5A1C7B685A627B685B8D9BB2AE
:10314C00013B9AB27B685A857B685B8D9BB2032BE3
:10315C0040F096807B681B685A687B681B6822F479
:10316C0080625A608CE07B68DB6A022B7FD0BB6884
:10317C00012B02D0BB68002B79D1786801F06CFA76
:10318C000346002B4CD17B681B681A687B681B6854
:10319C0022F480621A607B681B685A687B681B6823
:1031AC0022F4E0625A607B681B681A697B685B6A70
:1031BC00D2B21A707B685B6A5A1C7B685A627B6855
:1031CC005B8D9BB2013B9AB27B685A857B6820224F
:1031DC0083F83D207B6893F83E30DBB2402B0AD15C
:1031EC007B68002283F83E207B6800221A63786893
:1031FC00FFF7BDFD44E07B68002283F83E20FB68AE
:10320C00082B02D0FB68202B03D17B6800221A63A9
:10321C0002E07B6812221A637868FFF76EFD2FE0DC
:10322C007B681B685A687B681B6822F4E0625A60F2
:10323C007B681B681A697B685B6AD2B21A707B6800
:10324C005B6A5A1C7B685A627B685B8D9BB2013B44
:10325C009AB27B685A857B68202283F83D207B6874
:10326C00002283F83E207868FFF78AFD08E07B682F
:10327C001B685A687B681B6822F480625A60FFE7FF
:10328C0000BF1037BD4680BD80B584B000AF7860FC
:10329C007B68DB6AFB607B685B8D9BB2042B1BD16C
:1032AC007B681B685A687B681B6822F480625A60D2
:1032BC007B681B681A697B685B6AD2B21A707B6880
:1032CC005B6A5A1C7B685A627B685B8D9BB2013BC4
:1032DC009AB27B685A85C4E07B685B8D9BB2032BEA
:1032EC0029D17B681B685A687B681B6822F4806252
:1032FC005A60FB68042B0AD0FB68022B07D07B6852
:10330C001B681A687B681B6822F480621A607B68F1
:10331C001B681A697B685B6AD2B21A707B685B6A3D
:10332C005A1C7B685A627B685B8D9BB2013B9AB2DC
:10333C007B685A8595E07B685B8D9BB2022B7DD1B7
:10334C00FB68012B02D0FB68102B08D17B681B6833
:10335C001A687B681B6822F480621A6016E0FB68AE
:10336C00042B02D0FB68022B08D17B681B681A68FF
:10337C007B681B6842F480621A6007E07B681B68FC
:10338C001A687B681B6842F400721A607B681B68C1
:10339C001A697B685B6AD2B21A707B685B6A5A1CCA
:1033AC007B685A627B685B8D9BB2013B9AB27B68EF
:1033BC005A857B681B681A697B685B6AD2B21A7083
:1033CC007B685B6A5A1C7B685A627B685B8D9BB21C
:1033DC00013B9AB27B685A857B681B685A687B688C
:1033EC001B6822F440725A607B68202283F83D20CF
:1033FC007B6893F83E30DBB2402B0AD17B6800220D
:10340C0083F83E207B6800221A637868FFF7AFFCD4
:10341C0027E07B68002283F83E20FB68082B02D053
:10342C00FB68202B03D17B6800221A6302E07B68C7
:10343C0012221A637868FFF760FC12E07B681B6845
:10344C001A697B685B6AD2B21A707B685B6A5A1C19
:10345C007B685A627B685B8D9BB2013B9AB27B683E
:10346C005A8500BF1037BD4680BD80B483B000AF15
:10347C0078607B6893F83E30DBB2402B17D17B68C9
:10348C001B6D002B09D17B685B6CDBB21A467B6829
:10349C001B6802F0FE021A6167E07B685B6CDBB2B2
:1034AC0043F00103DAB27B681B681A615DE07B684C
:1034BC001B69B3F5804F33D17B6893F83D30DBB299
:1034CC00212B09D17B685B6CDBB21A467B681B68CD
:1034DC0002F0FE021A6108E07B685B6CDBB243F021
:1034EC000103DAB27B681B681A617B685B6B002B8B
:1034FC0004D07B685B6B9B6A002B08D17B689B6B51
:10350C00002B32D07B689B6B9B6A002B2DD07B6889
:10351C001B685A687B681B6842F400625A6024E09E
:10352C007B681B6D002B0ED17B685B6C9BB2DB1137
:10353C00DBB203F00603DBB263F00F03DAB27B6895
:10354C001B681A6111E07B681B6D012B0DD17B6828
:10355C005B6C9BB2DB11DBB203F00603DBB263F0F6
:10356C000E03DAB27B681B681A6100BF0C37BD46CC
:10357C0080BC704780B483B000AF78607B685B6CB4
:10358C00DAB27B681B681A617B685B6B002B04D01A
:10359C007B685B6B9B6A002B08D17B689B6B002B59
:1035AC000CD07B689B6B9B6A002B07D07B681B68DD
:1035BC005A687B681B6842F400625A6000BF0C3783
:1035CC00BD4680BC704780B491B000AF78607B681A
:1035DC0093F83E3087F83F307B68DB6ABB637B68CF
:1035EC001B6B7B637B6893F83D30DBB2222B40F086
:1035FC0074817B681B6D002B0FD197F83F30402BEB
:10360C000BD100233B637B681B685B693B637B6866
:10361C001B689B693B633B6B6BE17B681B6D002BF1
:10362C001DD17B681B69B3F5404F18D10023FB6299
:10363C007B681B685B69FB627B681B689B69FB6230
:10364C00FB6A7B681B681A687B681B6842F4807293
:10365C001A607B681B6D5A1C7B681A6549E17B6894
:10366C005B8D9BB2002B13D10023BB627B681B6864
:10367C005B69BB627B681B689B69BB62BB6A7B68CE
:10368C001B681A687B681B6842F400721A6020E1A0
:10369C007B685B8D9BB2012B40F08A80BB6B13F572
:1036AC00803F37D17B681B681A687B681B6822F4E3
:1036BC0080621A607B681B685B6803F40063B3F577
:1036CC00006F13D17B681B681A687B681B6822F437
:1036DC0080621A6000237B627B681B685B697B627B
:1036EC007B681B689B697B627B6AF2E000233B6210
:1036FC007B681B685B693B627B681B689B693B62F0
:10370C003B6A7B681B681A687B681B6842F4007212
:10371C001A60DEE0BB6B082B2ED0BB6B202B2BD0A2
:10372C007B6B122B02D1BB6B012B25D1BB6B042BFA
:10373C000ED0BB6B022B0BD0BB6B102B08D07B6855
:10374C001B681A687B681B6822F480621A6007E0A9
:10375C007B681B681A687B681B6842F480621A607D
:10376C000023FB617B681B685B69FB617B681B68E2
:10377C009B69FB61FB69ACE07B681B681A687B6822
:10378C001B6822F480621A600023BB617B681B6893
:10379C005B69BB617B681B689B69BB61BB697B68B0
:1037AC001B681A687B681B6842F400721A6090E010
:1037BC007B685B8D9BB2022B58D1BB6B042B21D049
:1037CC00BB6B022B1ED0BB6B102B1BD07B681B68FA
:1037DC001A687B681B6842F400621A6000237B61E4
:1037EC007B681B685B697B617B681B689B697B6181
:1037FC007B697B681B681A687B681B6822F4806293
:10380C001A6012E07B681B681A687B681B6842F4BC
:10381C0080621A6000233B617B681B685B693B61BB
:10382C007B681B689B693B613B697B681B685B68B9
:10383C0003F40063B3F5006F4BD1BB6B13F5803F02
:10384C000BD0BB6B012B08D0BB6B082B05D0BB6B13
:10385C00102B02D0BB6B202B3BD17B681B685A68AA
:10386C007B681B6842F480525A6032E07B681B68AC
:10387C001A687B681B6842F480621A607B681B685C
:10388C005B6803F40063B3F5006F17D1BB6B13F5E2
:10389C00803F0BD0BB6B012B08D0BB6B082B05D02A
:1038AC00BB6B102B02D0BB6B202B07D17B681B682A
:1038BC005A687B681B6842F480525A600023FB6094
:1038CC007B681B685B69FB607B681B689B69FB60A2
:1038DC00FB687B6800221A650BE00023BB607B68E9
:1038EC001B685B69BB607B681B689B69BB60BB68C2
:1038FC00FFE700BF4437BD4680BC704780B584B03D
:10390C0000AF78607B6893F83D30FB737B685B8D10
:10391C009BB2002B2BD07B685B6A1A787B681B6888
:10392C001A617B685B6A5A1C7B685A627B685B8D88
:10393C009BB2013B9AB27B685A857B685B8D9BB2CC
:10394C00002B14D1FB7B292B11D17B681B685A6887
:10395C007B681B6822F480625A607B6821221A63A0
:10396C007B68282283F83D207868FFF7CFF900BFE9
:10397C001037BD4680BD80B483B000AF78607B68E3
:10398C005B8D9BB2002B11D07B685B6A1A787B68CD
:10399C001B681A617B685B6A5A1C7B685A627B687D
:1039AC005B8D9BB2013B9AB27B685A8500BF0C378A
:1039BC00BD4680BC704780B584B000AF78607B6832
:1039CC0093F83D30FB737B685B8D9BB2002B2CD046
:1039DC007B681B681A697B685B6AD2B21A707B6859
:1039EC005B6A5A1C7B685A627B685B8D9BB2013B9D
:1039FC009AB27B685A857B685B8D9BB2002B14D185
:103A0C00FB7B2A2B11D17B681B685A687B681B686F
:103A1C0022F480625A607B6822221A637B68282217
:103A2C0083F83D207868FFF77AF900BF1037BD4660
:103A3C0080BD80B483B000AF78607B685B8D9BB237
:103A4C00002B12D07B681B681A697B685B6AD2B248
:103A5C001A707B685B6A5A1C7B685A627B685B8D48
:103A6C009BB2013B9AB27B685A8500BF0C37BD46AE
:103A7C0080BC704780B584B000AF7860396000239B
:103A8C00FB737B6893F83D30DBB203F02803282BE3
:103A9C0025D17B681B685A687B681B6822F480629E
:103AAC005A603B6803F00403002B01D10123FB7324
:103ABC003B6803F08003002B03D17B68DB68BB8180
:103ACC0002E07B689B69BB817B68002283F83C2009
:103ADC00BA89FB7B19467868FFF72AF90EE00023B8
:103AEC00BB607B681B685B69BB607B681B689B6900
:103AFC00BB60BB687B68002283F83C2000BF10379A
:103B0C00BD4680BD80B584B000AF78607B6893F80B
:103B1C003D30FB737B681B685A687B681B6822F41A
:103B2C00E0625A600023BB607B681B685B69BB600A
:103B3C007B681B681A687B681B6842F001021A607C
:103B4C00BB687B681B681A687B681B6822F4806200
:103B5C001A607B681B685B6803F40063B3F5006F45
:103B6C0072D1FB7B222B02D0FB7B2A2B35D17B68BD
:103B7C009B6B1B685B689AB27B685A857B685B8D14
:103B8C009BB2002B05D07B681B6C43F004027B6856
:103B9C001A647B681B685A687B681B6822F4006295
:103BAC005A607B689B6B1846FEF76AFA0346012B3A
:103BBC0049D07B689B6B694A5A637B689B6B184640
:103BCC00FEF7E6F90346002B3DD07B689B6B5B6BE5
:103BDC007A68926B1046984735E07B685B6B1B6884
:103BEC005B689AB27B685A857B685B8D9BB2002BB5
:103BFC0005D07B681B6C43F004027B681A647B68FD
:103C0C001B685A687B681B6822F400625A607B68E8
:103C1C005B6B1846FEF734FA0346012B14D07B6815
:103C2C005B6B4E4A5A637B685B6B1846FEF7B0F9C8
:103C3C000346002B08D07B685B6B5B6B7A68526B1E
:103C4C001046984700E000BF7B685B8D9BB2002B51
:103C5C003ED07B681B685B6903F00403042B12D114
:103C6C007B681B681A697B685B6AD2B21A707B68C6
:103C7C005B6A5A1C7B685A627B685B8D9BB2013B0A
:103C8C009AB27B685A857B681B685B6903F04003BA
:103C9C00402B12D17B681B681A697B685B6AD2B2B5
:103CAC001A707B685B6A5A1C7B685A627B685B8DF6
:103CBC009BB2013B9AB27B685A857B685B8D9BB249
:103CCC00002B05D07B681B6C43F004027B681A64E4
:103CDC007B681B6C002B03D0786800F0B7F839E0D8
:103CEC00FB7B2A2B09D17B6800221A637B68282274
:103CFC0083F83D207868FFF712F87B6893F83D3025
:103D0C00DBB2282B11D17B68154ADA627B68002262
:103D1C001A637B68202283F83D207B68002283F89D
:103D2C003E207868FFF711F814E07B681B6B222BA0
:103D3C0002D0FB7B222B0DD17B6800221A637B689F
:103D4C00202283F83D207B68002283F83E2078688F
:103D5C00FEF7E5FF00BF1037BD4680BDC14100082E
:103D6C000000FFFF80B584B000AF78607B6893F8EB
:103D7C003D30FB737B68DB6ABB60BB68082B02D0F1
:103D8C00BB68202B29D1FB7B282B26D17B682E4AA4
:103D9C00DA627B681B685A687B681B6822F4E062F5
:103DAC005A607B681B686FF480625A617B681B6881
:103DBC001A687B681B6822F480621A607B68002298
:103DCC001A637B68202283F83D207B68002283F8ED
:103DDC003E207868FEF7B9FF31E0FB7B212B29D11F
:103DEC007B68194ADA627B6821221A637B6820227D
:103DFC0083F83D207B68002283F83E207B681B689B
:103E0C005A687B681B6822F4E0625A607B681B6806
:103E1C006FF480625A617B681B681A687B681B6848
:103E2C0022F480621A607868FEF752FC7868FEF71C
:103E3C006DFF04E07B681B686FF480625A6100BF01
:103E4C001037BD4680BD00BF0000FFFF80B584B0B9
:103E5C0000AF78607B6893F83D30FB737B6893F818
:103E6C003E30BB73BB7B102B02D0BB7B402B0AD1EB
:103E7C00FB7B222B07D17B681B681A687B681B684D
:103E8C0022F400621A60FB7B03F02803282B07D175
:103E9C007B6800221A637B68282283F83D2015E09A
:103EAC007B681B685B6803F40063B3F5006F0AD092
:103EBC00FB7B602B07D07B68202283F83D207B683E
:103ECC00002283F83E207B6800221A637B681B6803
:103EDC005B6803F40063B3F5006F62D17B681B6809
:103EEC005A687B681B6822F400625A607B685B6BC3
:103EFC0093F82130DBB2012B20D07B685B6B6A4AD4
:103F0C005A637B685B6B1846FEF742F80346002B3E
:103F1C0000F089807B681B681A687B681B6822F03C
:103F2C0001021A607B68202283F83D207B685B6B62
:103F3C005B6B7A68526B1046984774E07B689B6B9E
:103F4C00594A5A637B689B6B1846FEF721F8034667
:103F5C00002B68D07B681B685B6903F04003402B27
:103F6C000BD17B681B681A697B685B6AD2B21A70CA
:103F7C007B685B6A5A1C7B685A627B681B681A6890
:103F8C007B681B6822F001021A607B68202283F890
:103F9C003D207B689B6B5B6B7A68926B10469847F5
:103FAC0041E07B6893F83D30DBB2602B25D17B6818
:103FBC00202283F83D207B6800221A647B681B68F2
:103FCC005B6903F04003402B0BD17B681B681A69BB
:103FDC007B685B6AD2B21A707B685B6A5A1C7B681E
:103FEC005A627B681B681A687B681B6822F00102A6
:103FFC001A607868FEF7CDFE15E07B681B685B697C
:10400C0003F04003402B0BD17B681B681A697B685B
:10401C005B6AD2B21A707B685B6A5A1C7B685A6204
:10402C007868FEF7ADFE7B681B6CBB60BB6803F069
:10403C000103002B0ED1BB6803F00203002B09D146
:10404C00BB6803F00403002B04D1BB6803F0080326
:10405C00002B07D07B681B685A687B681B6822F4AE
:10406C00E0625A607B6893F83D30FB737B681B6C95
:10407C0003F00403042B13D1FB7B282B10D17B689A
:10408C000A4ADA627B6800221A637B68202283F872
:10409C003D207B68002283F83E207868FEF755FEB1
:1040AC0000BF1037BD4680BDC14100080000FFFFB6
:1040BC0080B588B002AFF8607A603B600B467B81BC
:1040CC00FB68DB6A7B617B69082B06D07B69012B63
:1040DC0003D07B6913F5803F08D1FB681B681A6815
:1040EC00FB681B6842F480721A600BE0FB681B6B68
:1040FC00122B07D1FB681B681A68FB681B6842F41B
:10410C0080721A603B6800937B6800224FF00111AB
:10411C00F86800F0F7F80346002B0DD0FB681B681D
:10412C001B6803F48073B3F5807F03D1FB684FF4F5
:10413C0000721A64032335E0FB681B69B3F5804FEA
:10414C0008D17B89DBB21A46FB681B6802F0FE02C1
:10415C001A611BE07B89DB11DBB203F00603DBB2D7
:10416C0063F00F03DAB2FB681B681A613B687A686C
:10417C000E49F86800F040F90346002B01D00123EA
:10418C0010E07B89DAB2FB681B681A613B687A68BD
:10419C000749F86800F030F90346002B01D00123E1
:1041AC0000E0002318461837BD4680BD080001000A
:1041BC000200010080B586B000AF78600023FB6080
:1041CC007B685B6A7B617B6993F83D30FB744B4B7E
:1041DC001B68DB084A4AA2FB03231A0A13469B00FE
:1041EC001344DA00D31AFB60FB68002B06D17B6901
:1041FC001B6C43F020027B691A640AE0FB68013BEC
:10420C00FB607B691B681B6803F40073B3F5007FCC
:10421C00EAD07B695B6B002B03D07B695B6B002264
:10422C009A627B699B6B002B03D07B699B6B002292
:10423C009A627B691B681A687B691B6822F480622E
:10424C001A607B6900225A857B695B6B002B03D05B
:10425C007B695B6B00225A637B699B6B002B03D0E1
:10426C007B699B6B00225A637B691B681A687B69AC
:10427C001B6822F001021A607B6993F83D30DBB2B7
:10428C00602B0ED17B69202283F83D207B690022B4
:10429C0083F83E207B6900221A647869FEF779FD69
:1042AC0027E0FB7C03F02803282B17D17B691B68C4
:1042BC001A687B691B6842F001021A607B691B68F3
:1042CC001A687B691B6842F480621A607B69002261
:1042DC001A637B69282283F83D2007E07B69202242
:1042EC0083F83D207B69002283F83E207869FEF735
:1042FC0047FD00BF1837BD4680BD00BF3C00002005
:10430C0089B5F81480B584B000AFF860B9603B6033
:10431C001346FB7148E03B68B3F1FF3F44D0FDF717
:10432C00FBFC0246BB69D31A3A689A4202D33B683B
:10433C00002B39D1BB681B0CDBB2012B0DD1FB68F8
:10434C001B685B69DA43BB6813409BB2002B0CBF44
:10435C0001230023DBB21A460CE0FB681B689B6947
:10436C00DA43BB6813409BB2002B0CBF0123002324
:10437C00DBB21A46FB799A4216D1FB6800221A630B
:10438C00FB68202283F83D20FB68002283F83E2046
:10439C00FB681B6C43F02002FB681A64FB6800226C
:1043AC0083F83C20012323E0BB681B0CDBB2012B00
:1043BC000DD1FB681B685B69DA43BB6813409BB289
:1043CC00002B0CBF01230023DBB21A460CE0FB6868
:1043DC001B689B69DA43BB6813409BB2002B0CBF74
:1043EC0001230023DBB21A46FB799A4293D00023B7
:1043FC0018461037BD4680BD80B584B000AFF8605C
:10440C00B9607A603B6071E0FB681B685B6903F420
:10441C008063B3F5806F23D1FB681B681A68FB6857
:10442C001B6842F400721A60FB681B686FF48062B0
:10443C005A61FB6800221A63FB68202283F83D2036
:10444C00FB68002283F83E20FB681B6C43F00402DF
:10445C00FB681A64FB68002283F83C20012367E0A8
:10446C007B68B3F1FF3F41D0FDF756FC02463B6839
:10447C00D31A7A689A4202D37B68002B36D1BB6878
:10448C001B0CDBB2012B0CD1FB681B685B69DA439C
:10449C00BB6813409BB2002B14BF01230023DBB27B
:1044AC000BE0FB681B689B69DA43BB6813409BB24B
:1044BC00002B14BF01230023DBB2002B16D0FB68AA
:1044CC0000221A63FB68202283F83D20FB6800223F
:1044DC0083F83E20FB681B6C43F02002FB681A64D7
:1044EC00FB68002283F83C20012321E0BB681B0CF5
:1044FC00DBB2012B0CD1FB681B685B69DA43BB6830
:10450C0013409BB2002B14BF01230023DBB20BE042
:10451C00FB681B689B69DA43BB6813409BB2002B9A
:10452C0014BF01230023DBB2002B7FF46DAF0023FB
:10453C0018461037BD4680BD80B584B000AFF8601A
:10454C00B9607A6034E0F86800F0B8F80346002BE4
:10455C0001D0012334E0BB68B3F1FF3F28D0FDF755
:10456C00DBFB02467B68D31ABA689A4202D3BB685B
:10457C00002B1DD1FB681B685B6903F08003802B4B
:10458C0016D0FB6800221A63FB68202283F83D20BA
:10459C00FB68002283F83E20FB681B6C43F0200272
:1045AC00FB681A64FB68002283F83C20012307E0B7
:1045BC00FB681B685B6903F08003802BC3D100236D
:1045CC0018461037BD4680BD80B584B000AFF8608A
:1045DC00B9607A6034E0F86800F070F80346002B9C
:1045EC0001D0012334E0BB68B3F1FF3F28D0FDF7C5
:1045FC0093FB02467B68D31ABA689A4202D3BB6813
:10460C00002B1DD1FB681B685B6903F00403042BB2
:10461C0016D0FB6800221A63FB68202283F83D2029
:10462C00FB68002283F83E20FB681B6C43F02002E1
:10463C00FB681A64FB68002283F83C20012307E026
:10464C00FB681B685B6903F00403042BC3D10023D4
:10465C0018461037BD4680BD80B485B000AF786079
:10466C000023FB60134B1B68DB08134AA2FB0323DC
:10467C001A0A13469B001344FB60FB68013BFB606A
:10468C00FB68002B07D17B681B6C43F020027B6816
:10469C001A64012308E07B681B681B6803F4007331
:1046AC00B3F5007FE9D0002318461437BD4680BC13
:1046BC00704700BF3C00002089B5F81480B483B06B
:1046CC0000AF78607B681B685B6903F48063B3F5AB
:1046DC00806F1BD17B681B686FF480625A617B68AA
:1046EC0000221A637B68202283F83D207B6800221D
:1046FC0083F83E207B681B6C43F004027B681A64D1
:10470C007B68002283F83C20012300E0002318463C
:10471C000C37BD4680BC704780B483B000AF786066
:10472C007B68DB6AB3F52A0F03D17B680122DA625E
:10473C0007E07B68DB6AB3F12A4F02D17B68082261
:10474C00DA6200BF0C37BD4680BC704780B586B0BE
:10475C0000AF78607B68002B01D1012372E27B688B
:10476C001B6803F00103002B00F08780924B5B6801
:10477C0003F00C03042B0CD08F4B5B6803F00C0381
:10478C00082B12D18C4B5B6803F48033B3F5803F5C
:10479C000BD1894B1B6803F40033002B6CD07B6866
:1047AC005B68002B68D101234CE27B685B68B3F536
:1047BC00803F06D1804B1B687F4A43F480331360E3
:1047CC002EE07B685B68002B0CD17B4B1B687A4A14
:1047DC0023F480331360784B1B68774A23F48023CF
:1047EC0013601DE07B685B68B3F5A02F0CD1724B96
:1047FC001B68714A43F4802313606F4B1B686E4A2D
:10480C0043F4803313600BE06B4B1B686A4A23F450
:10481C0080331360684B1B68674A23F48023136052
:10482C007B685B68002B13D0FDF776FA386108E0E3
:10483C00FDF772FA02463B69D31A642B01D90323A4
:10484C0000E25D4B1B6803F40033002BF0D014E046
:10485C00FDF762FA386108E0FDF75EFA02463B6943
:10486C00D31A642B01D90323ECE1534B1B6803F4DB
:10487C000033002BF0D100E000BF7B681B6803F015
:10488C000203002B63D04C4B5B6803F00C03002B32
:10489C000BD0494B5B6803F00C03082B1CD1464B27
:1048AC005B6803F48033002B16D1434B1B6803F079
:1048BC000203002B05D07B681B69012B01D001235F
:1048CC00C0E13D4B1B6823F0F8027B685B69DB00A1
:1048DC00394913430B603AE07B681B69002B20D0ED
:1048EC00364B01221A60FDF717FA386108E0FDF724
:1048FC0013FA02463B69D31A022B01D90323A1E117
:10490C002D4B1B6803F00203002BF0D02A4B1B68C5
:10491C0023F0F8027B685B69DB00274913430B60CB
:10492C0015E0264B00221A60FDF7F6F9386108E015
:10493C00FDF7F2F902463B69D31A022B01D9032386
:10494C0080E11D4B1B6803F00203002BF0D17B6848
:10495C001B6803F00803002B3AD07B689B69002B83
:10496C0019D0174B01221A60FDF7D6F9386108E00F
:10497C00FDF7D2F902463B69D31A022B01D9032366
:10498C0060E10D4B5B6A03F00203002BF0D00120B9
:10499C0000F0BAFA1CE00A4B00221A60FDF7BCF9D1
:1049AC0038610FE0FDF7B8F902463B69D31A022BC8
:1049BC0008D9032346E100BF001002400000424228
:1049CC0080044242924B5B6A03F00203002BE9D154
:1049DC007B681B6803F00403002B00F0A680002307
:1049EC00FB758B4BDB6903F08053002B0DD1884B8F
:1049FC00DB69874A43F08053D361854BDB6903F055
:104A0C008053BB60BB680123FB75824B1B6803F4AE
:104A1C008073002B18D17F4B1B687E4A43F4807344
:104A2C001360FDF779F9386108E0FDF775F9024676
:104A3C003B69D31A642B01D9032303E1754B1B6823
:104A4C0003F48073002BF0D07B68DB68012B06D15C
:104A5C006F4B1B6A6E4A43F0010313622DE07B68B7
:104A6C00DB68002B0CD16A4B1B6A694A23F00103EB
:104A7C001362674B1B6A664A23F0040313621CE043
:104A8C007B68DB68052B0CD1614B1B6A604A43F0D9
:104A9C00040313625E4B1B6A5D4A43F0010313620D
:104AAC000BE05B4B1B6A5A4A23F001031362584B11
:104ABC001B6A574A23F0040313627B68DB68002BE4
:104ACC0015D0FDF729F938610AE0FDF725F9024602
:104ADC003B69D31A41F28832934201D90323B1E0E6
:104AEC004B4B1B6A03F00203002BEED014E0FDF7D6
:104AFC0013F938610AE0FDF70FF902463B69D31A46
:104B0C0041F28832934201D903239BE0404B1B6A4C
:104B1C0003F00203002BEED1FB7D012B05D13C4BA6
:104B2C00DB693B4A23F08053D3617B68DB69002B44
:104B3C0000F08780364B5B6803F00C03082B61D0C8
:104B4C007B68DB69022B46D1334B00221A60FDF7E0
:104B5C00E3F8386108E0FDF7DFF802463B69D31A49
:104B6C00022B01D903236DE0294B1B6803F0007362
:104B7C00002BF0D17B681B6AB3F5803F08D1244B26
:104B8C005B6823F400327B689B68214913434B60BC
:104B9C001F4B5B6823F474127B68196A7B685B6A31
:104BAC000B431B4913434B601B4B01221A60FDF74F
:104BBC00B3F8386108E0FDF7AFF802463B69D31A49
:104BCC00022B01D903233DE0114B1B6803F000734A
:104BDC00002BF0D035E0104B00221A60FDF79CF84A
:104BEC00386108E0FDF798F802463B69D31A022BAE
:104BFC0001D9032326E0064B1B6803F00073002B3E
:104C0C00F0D11EE07B68DB69012B07D1012319E091
:104C1C000010024000700040600042420B4B5B6889
:104C2C00FB60FB6803F480327B681B6A9A4206D1F6
:104C3C00FB6803F470127B685B6A9A4201D0012313
:104C4C0000E0002318461837BD4680BD0010024016
:104C5C0080B584B000AF786039607B68002B01D1DF
:104C6C000123D0E06A4B1B6803F007033A689A42B1
:104C7C0010D9674B1B6823F0070265493B68134347
:104C8C000B60634B1B6803F007033A689A4201D030
:104C9C000123B8E07B681B6803F00203002B20D0D3
:104CAC007B681B6803F00403002B05D0594B5B6831
:104CBC00584A43F4E06353607B681B6803F00803B5
:104CCC00002B05D0534B5B68524A43F4605353603E
:104CDC00504B5B6823F0F0027B689B684D49134393
:104CEC004B607B681B6803F00103002B40D07B6892
:104CFC005B68012B07D1474B1B6803F40033002B77
:104D0C0015D101237FE07B685B68022B07D1414BF7
:104D1C001B6803F00073002B09D1012373E03D4B9A
:104D2C001B6803F00203002B01D101236BE0394B0C
:104D3C005B6823F003027B685B68364913434B6066
:104D4C00FCF7EAFFF8600AE0FCF7E6FF0246FB68B6
:104D5C00D31A41F28832934201D9032353E02D4BED
:104D6C005B6803F00C027B685B689B009A42EBD19A
:104D7C00274B1B6803F007033A689A4210D2244B66
:104D8C001B6823F0070222493B6813430B60204B3E
:104D9C001B6803F007033A689A4201D0012332E002
:104DAC007B681B6803F00403002B08D0194B5B686D
:104DBC0023F4E0627B68DB68164913434B607B6825
:104DCC001B6803F00803002B09D0124B5B6823F41B
:104DDC0060527B681B69DB000E4913434B6000F08B
:104DEC0021F802460B4B5B681B0903F00F030A49C1
:104DFC00CB5C22FA03F3094A1360094B1B68184673
:104E0C00FCF748FF002318461037BD4680BD00BF95
:104E1C0000200240001002406C6100083C000020A1
:104E2C004400002080B487B000AF0023FB60002357
:104E3C00BB6000237B6100237B6000233B611E4B26
:104E4C005B68FB60FB6803F00C03042B02D0082B9F
:104E5C0003D027E0194B3B6127E0FB689B0C03F068
:104E6C000F03174AD35C7B60FB6803F48033002B81
:104E7C0010D0114B5B685B0C03F00103114AD35C3F
:104E8C00BB607B680D4A03FB02F2BB68B2FBF3F319
:104E9C007B6104E07B680C4A02FB03F37B617B695A
:104EAC003B6102E0054B3B6100BF3B6918461C3778
:104EBC00BD4680BC704700BF0010024000127A0053
:104ECC00846100089461000800093D0080B400AFC3
:104EDC00024B1B681846BD4680BC70473C00002046
:104EEC0080B500AFFFF7F2FF0246054B5B681B0A6B
:104EFC0003F007030349CB5C22FA03F3184680BD89
:104F0C00001002407C61000880B485B000AF78606E
:104F1C000A4B1B680A4AA2FB03235B0A7A6802FB52
:104F2C0003F3FB6000BFFB685A1EFA60002BF9D13B
:104F3C0000BF00BF1437BD4680BC70473C0000204A
:104F4C00D34D621080B582B000AF78607B68002BC7
:104F5C0001D1012341E07B6893F83D30DBB2002B9B
:104F6C0006D17B68002283F83C207868FCF7DAFCD9
:104F7C007B68022283F83D207B681A687B680433C7
:104F8C001946104600F05CFA7B68012283F8462033
:104F9C007B68012283F83E207B68012283F83F2046
:104FAC007B68012283F840207B68012283F8412032
:104FBC007B68012283F842207B68012283F843201E
:104FCC007B68012283F844207B68012283F845200A
:104FDC007B68012283F83D20002318460837BD4624
:104FEC0080BD000080B485B000AF78607B6893F81A
:104FFC003D30DBB2012B01D001233AE07B68022269
:10500C0083F83D207B681B68DA687B681B6842F07C
:10501C000102DA607B681B68184A93420ED07B68E9
:10502C001B68B3F1804F09D07B681B68144A93420C
:10503C0004D07B681B68134A934211D17B681B68B0
:10504C009B6803F00703FB60FB68062B10D07B68A2
:10505C001B681A687B681B6842F001021A6007E043
:10506C007B681B681A687B681B6842F001021A6037
:10507C00002318461437BD4680BC7047002C0140F5
:10508C00000400400008004080B584B000AF786098
:10509C007B681B68DB68FB607B681B681B69BB60FB
:1050AC00BB6803F00203002B20D0FB6803F0020363
:1050BC00002B1BD07B681B686FF002021A617B68A7
:1050CC0001221A777B681B689B6903F00303002B92
:1050DC0003D0786800F098F905E0786800F08BF957
:1050EC00786800F09AF97B6800221A77BB6803F0A5
:1050FC000403002B20D0FB6803F00403002B1BD00F
:10510C007B681B686FF004021A617B6802221A77B5
:10511C007B681B689B6903F44073002B03D0786891
:10512C0000F072F905E0786800F065F9786800F035
:10513C0074F97B6800221A77BB6803F00803002B14
:10514C0020D0FB6803F00803002B1BD07B681B6886
:10515C006FF008021A617B6804221A777B681B685F
:10516C00DB6903F00303002B03D0786800F04CF9E3
:10517C0005E0786800F03FF9786800F04EF97B683C
:10518C0000221A77BB6803F01003002B20D0FB68B9
:10519C0003F01003002B1BD07B681B686FF0100210
:1051AC001A617B6808221A777B681B68DB6903F439
:1051BC004073002B03D0786800F026F905E078687E
:1051CC0000F019F9786800F028F97B6800221A774A
:1051DC00BB6803F00103002B0CD0FB6803F0010348
:1051EC00002B07D07B681B686FF001021A6178688E
:1051FC00FBF718FEBB6803F08003002B0CD0FB6898
:10520C0003F08003002B07D07B681B686FF08002D3
:10521C001A61786800F07FFABB6803F04003002B3A
:10522C000CD0FB6803F04003002B07D07B681B6895
:10523C006FF040021A61786800F0F8F8BB6803F070
:10524C002003002B0CD0FB6803F02003002B07D0AD
:10525C007B681B686FF020021A61786800F052FAC4
:10526C0000BF1037BD4680BD80B584B000AF7860FC
:10527C0039600023FB737B6893F83C30012B01D120
:10528C000223B4E07B68012283F83C207B68022275
:10529C0083F83D207B681B689B68BB60BB6823F070
:1052AC007703BB60BB6823F47F43BB607B681B68E0
:1052BC00BA689A603B681B68B3F5005F3ED0B3F5E3
:1052CC00005F00F28780B3F5805F00F08680B3F555
:1052DC00805F7FD8702B1AD0702B7BD8602B50D06E
:1052EC00602B77D8502B3CD0502B73D8402B58D0F8
:1052FC00402B6FD8302B64D0302B6BD8202B60D048
:10530C00202B67D8002B5CD0102B5AD062E07B6826
:10531C0018683B6899683B685A683B68DB6800F022
:10532C0074F97B681B689B68BB60BB6843F07703B0
:10533C00BB607B681B68BA689A604FE07B68186832
:10534C003B6899683B685A683B68DB6800F05DF91C
:10535C007B681B689A687B681B6842F480429A6081
:10536C003CE07B6818683B6859683B68DB681A4608
:10537C0000F0D4F87B681B685021184600F02BF91C
:10538C002CE07B6818683B6859683B68DB681A46F8
:10539C0000F0F2F87B681B686021184600F01BF9DE
:1053AC001CE07B6818683B6859683B68DB681A46E8
:1053BC0000F0B4F87B681B684021184600F00BF92C
:1053CC000CE07B681A683B681B681946104600F0B5
:1053DC0002F903E00123FB7300E000BF7B680122AC
:1053EC0083F83D207B68002283F83C20FB7B184629
:1053FC001037BD4680BD80B483B000AF786000BF6D
:10540C000C37BD4680BC704780B483B000AF786069
:10541C0000BF0C37BD4680BC704780B483B000AF72
:10542C00786000BF0C37BD4680BC704780B483B039
:10543C0000AF786000BF0C37BD4680BC70470000E1
:10544C0080B485B000AF786039607B681B68FB6006
:10545C007B682F4A93420BD07B68B3F1804F07D007
:10546C007B682C4A934203D07B682B4A934208D129
:10547C00FB6823F07003FB603B685B68FA681343BE
:10548C00FB607B68224A93420BD07B68B3F1804F60
:10549C0007D07B681F4A934203D07B681E4A934215
:1054AC0008D1FB6823F44073FB603B68DB68FA6847
:1054BC001343FB60FB6823F080023B685B6913437A
:1054CC00FB607B68FA681A603B689A687B68DA62F2
:1054DC003B681A687B689A627B680D4A934203D1D9
:1054EC003B681A697B681A637B6801225A617B6886
:1054FC001B6903F00103002B05D07B681B6923F0AB
:10550C0001027B681A6100BF1437BD4680BC70472E
:10551C00002C0140000400400008004080B487B01B
:10552C0000AFF860B9607A60FB681B6A7B61FB684E
:10553C001B6A23F00102FB681A62FB689B693B61E2
:10554C003B6923F0F0033B617B681B013A69134311
:10555C003B617B6923F00A037B617A69BB68134367
:10556C007B61FB683A699A61FB687A691A6200BFD1
:10557C001C37BD4680BC704780B487B000AFF86064
:10558C00B9607A60FB681B6A7B61FB681B6A23F05D
:10559C001002FB681A62FB689B693B613B6923F450
:1055AC0070433B617B681B033A6913433B617B6926
:1055BC0023F0A0037B61BB681B017A6913437B61F9
:1055CC00FB683A699A61FB687A691A6200BF1C37FA
:1055DC00BD4680BC704780B485B000AF7860396040
:1055EC007B689B68FB60FB6823F07003FB603A6888
:1055FC00FB68134343F00703FB607B68FA689A600F
:10560C0000BF1437BD4680BC704780B487B000AF74
:10561C00F860B9607A603B60FB689B687B617B6972
:10562C0023F47F437B613B681A027B681A43BB6897
:10563C0013437A6913437B61FB687A699A6000BFF4
:10564C001C37BD4680BC704780B485B000AF786015
:10565C0039607B6893F83C30012B01D1022346E082
:10566C007B68012283F83C207B68022283F83D2072
:10567C007B681B685B68FB607B681B689B68BB6016
:10568C00FB6823F07003FB603B681B68FA681343EC
:10569C00FB607B681B68FA685A607B681B68164A5B
:1056AC0093420ED07B681B68B3F1804F09D07B68A6
:1056BC001B68124A934204D07B681B68104A9342C1
:1056CC000CD1BB6823F08003BB603B685B68BA6895
:1056DC001343BB607B681B68BA689A607B680122C5
:1056EC0083F83D207B68002283F83C200023184679
:1056FC001437BD4680BC7047002C014000040040AC
:10570C000008004080B483B000AF786000BF0C3755
:10571C00BD4680BC704780B483B000AF786000BFDA
:10572C000C37BD4680BC7047024B0146186800F030
:10573C002DB800BF4C000020024B0146186800F049
:10574C0015B900BF4C00002070B50F4E0C463168E7
:10575C00054611B900F0CEF830602146284600F01D
:10576C00C9F8431C03D14FF0FF34204670BDC41C54
:10577C0024F00304A042F8D0211A284600F0BAF80D
:10578C000130F2D1EFE700BFE40100202DE9F8432E
:10579C00CD1C25F0030508350C2D38BF0C25002D2C
:1057AC00064601DBA94204D90C2333600020BDE876
:1057BC00F883DFF8D48000F069F8D8F800301C4684
:1057CC0044BB29463046FFF7BFFF431C044658D163
:1057DC00D8F800402746002F43D1002C4BD023682B
:1057EC003946304604EB030900F084F8814542D178
:1057FC00216830466D1A2946FFF7A6FF01303AD0D2
:10580C0023682B442360D8F800305A6862BBC8F870
:10581C0000700FE02268521B20D40B2A17D9611993
:10582C00A342256018BF5960636808BFC8F8001010
:10583C0062514B60304600F02FF804F10B00231D31
:10584C0020F00700C21A1CBF1B1AA350AFE76268F6
:10585C00A3420CBFC8F800205A60EBE723466468EB
:10586C00AEE73C467F68B6E71A465B68A342FBD1BD
:10587C0000235360DEE70C233046336000F00CF855
:10588C0094E70560D6E700BFE8010020014800F06E
:10589C006BB800BF28030020014800F066B800BFB9
:1058AC00280300200EB46FF0004100B59CB01DAB76
:1058BC0002900690079104910848094953F8042B6B
:1058CC000591006802A9019300F0F4F80022029BF4
:1058DC001A701CB05DF804EB03B070474C0000204C
:1058EC000802FFFF03460244934200D1704703F8BD
:1058FC00011BF9E738B50023054D044608462B601B
:10590C00FCF786F8431C02D12B6803B1236038BD29
:10591C0024030020014B1868704700BF4C00002086
:10592C0070B500260C4D0D4C641BA410A64209D179
:10593C0000F0BAFB00260A4D0A4C641BA410A642C8
:10594C0005D170BD55F8043B98470136EEE755F884
:10595C00043B98470136F2E7CC610008CC610008A3
:10596C00CC610008D06100087047704738B5054617
:10597C00002940D051F8043C0C1F002BB8BFE41890
:10598C00FFF784FF1C4A136833B963601460284620
:10599C00BDE83840FFF780BFA34208D92068211822
:1059AC008B4201BF19685B6809182160EDE71A4644
:1059BC005B680BB1A342FAD911685018A0420BD105
:1059CC0020680144501883421160E0D118685B686C
:1059DC00084410605360DAE702D90C232B60D6E739
:1059EC00206821188B4201BF19685B680918216077
:1059FC0063605460CBE738BDE80100202DE9F04727
:105A0C001F468E688246BE420C4690460B682DD8C7
:105A1C00B1F90C2012F4906F26D06569096905EB79
:105A2C004505A3EB010905EBD5757B1C4B446D10AB
:105A3C009D4238BF1D46530527D52946FFF7A6FEC4
:105A4C00064660B34A46216900F0EAFAA38923F4BA
:105A5C00906343F08003A38126614E4426603E464A
:105A6C006561A5EB0905A560BE4200D93E463246EC
:105A7C004146206800F0ACFA0020A3689B1BA36091
:105A8C00236833442360BDE8F0872A4600F0D6FA39
:105A9C0006460028E0D150462169FFF767FF0C232A
:105AAC00CAF80030A3894FF0FF3043F04003A381C4
:105ABC00E9E700002DE9F04F98468B8907461B0655
:105ACC000D4614469DB010D50B6973B94021FFF7F4
